:020000040000FA
:100000000C9453000C947B000C947B000C947502B0
:100010000C947B000C947B000C947B000C947B0074
:100020000C947B000C947B000C947B000C947B0064
:100030000C947B000C947B000C947B000C947B0054
:100040000C942B020C947B000C94F9010C94D301BA
:100050000C947B000C947B000C947B000C947B0034
:100060000C947B000C947B0000000000250028000D
:100070002B0000000000240027002A0004040404D0
:100080000404040402020202020203030303030342
:10009000010204081020408001020408102001021F
:1000A00004081020E60311241FBECFEFD8E0DEBF06
:1000B000CDBF11E0A0E0B1E0E6E3F8E002C00590BA
:1000C0000D92A633B107D9F721E0A6E3B1E001C054
:1000D0001D92A03EB207E1F710E0C3E5D0E004C0F6
:1000E0002197FE010E941304C235D107C9F70E946F
:1000F000D8020C9419040C940000AF92BF92CF92D6
:10010000DF92EF92FF920F931F93CF93DF936C01D7
:100110007B018B01040F151FEB015E01AE18BF08B8
:10012000C017D10759F06991D601ED91FC9101906A
:10013000F081E02DC6010995892B79F7C501DF9182
:10014000CF911F910F91FF90EF90DF90CF90BF90D4
:10015000AF900895FC01538D448D252F30E0842FFE
:1001600090E0821B930B541710F0CF9608950197DF
:100170000895FC01918D828D981761F0A28DAE0FCC
:10018000BF2FB11D5D968C91928D9F5F9F73928F53
:1001900090E008958FEF9FEF0895FC01918D828D7F
:1001A000981731F0828DE80FF11D858D90E008954C
:1001B0008FEF9FEF0895FC01918D228D892F90E0A4
:1001C000805C9F4F821B91098F739927089583E468
:1001D00091E00E94DB0021E0892B09F420E0822FCE
:1001E000089580E090E0892B29F00E94E7008111BA
:1001F0000C9400000895FC01A48DA80FB92FB11D27
:10020000A35ABF4F2C91848D90E001968F7399274C
:10021000848FA689B7892C93A089B1898C9183702A
:1002200080648C93938D848D981306C00288F38923
:10023000E02D80818F7D80830895EF92FF920F9350
:100240001F93CF93DF93EC0181E0888F9B8D8C8D82
:1002500098131AC0E889F989808185FF15C09FB776
:10026000F894EE89FF896083E889F9898081837039
:10027000806480839FBF81E090E0DF91CF911F91E8
:100280000F91FF90EF900895F62E0B8D10E00F5F09
:100290001F4F0F731127E02E8C8D8E110CC00FB6DF
:1002A00007FCFACFE889F989808185FFF5CFCE0177
:1002B0000E94FB00F1CFEB8DEC0FFD2FF11DE35AF7
:1002C000FF4FF0829FB7F8940B8FEA89FB898081FA
:1002D0008062CFCFCF93DF93EC01888D8823B9F074
:1002E000AA89BB89E889F9898C9185FD03C0808141
:1002F00086FD0DC00FB607FCF7CF8C9185FFF2CFBE
:10030000808185FFEDCFCE010E94FB00E9CFDF9118
:10031000CF9108953FB7F89480913F0190914001AB
:10032000A0914101B091420126B5A89B05C02F3F85
:1003300019F00196A11DB11D3FBFBA2FA92F982F0B
:100340008827BC01CD01620F711D811D911D42E006
:10035000660F771F881F991F4A95D1F70895CF938D
:10036000DF93C7E0D0E083B190E00C2E02C09595FA
:1003700087950A94E2F741E050E062E271E080FD87
:1003800002C064E271E083E491E00E947D00219765
:1003900051F742E050E066E271E083E491E0DF91E2
:1003A000CF910C947D001F920F920FB60F921124E3
:1003B0002F933F934F935F936F937F938F939F936D
:1003C000AF93BF93EF93FF9383E491E00E94FB0010
:1003D000FF91EF91BF91AF919F918F917F916F911D
:1003E0005F914F913F912F910F900FBE0F901F90F3
:1003F00018951F920F920FB60F9211242F938F937F
:100400009F93EF93FF93E0915301F091540180810A
:10041000E0915901F0915A0182FD1BC090818091B9
:100420005C018F5F8F7320915D01821741F0E09135
:100430005C01F0E0ED5BFE4F958F80935C01FF91D6
:10044000EF919F918F912F910F900FBE0F901F9062
:1004500018958081F4CF1F920F920FB60F9211243E
:100460002F933F938F939F93AF93BF9380913B01C3
:1004700090913C01A0913D01B0913E0130913A0133
:1004800023E0230F2D3758F50196A11DB11D2093B0
:100490003A0180933B0190933C01A0933D01B093BE
:1004A0003E0180913F0190914001A0914101B091A6
:1004B00042010196A11DB11D80933F01909340011F
:1004C000A0934101B0934201BF91AF919F918F9151
:1004D0003F912F910F900FBE0F901F90189526E817
:1004E000230F0296A11DB11DD2CF1F920F920FB6FE
:1004F0000F921124CF92DF92EF92FF922F933F93AE
:100500004F935F936F937F938F939F93AF93BF931B
:10051000EF93FF938FB7F894C0903B01D0903C01CC
:10052000E0903D01F0903E018FBF809136019091A7
:100530003701A0913801B0913901A7019601281B1C
:10054000390B4A0B5B0BDA01C90185369105A10510
:10055000B10588F044E050E060E371E083E491E0AD
:100560000E947D0083B10E94AF018CB30E94AF0155
:100570008CB30E94AF01C0923601D0923701E09255
:100580003801F0923901FF91EF91BF91AF919F91A6
:100590008F917F916F915F914F913F912F91FF903C
:1005A000EF90DF90CF900F900FBE0F901F90189597
:1005B000789484B5826084BD84B5816084BD85B53E
:1005C000826085BD85B5816085BD80916E0081604A
:1005D00080936E00109281008091810082608093F0
:1005E00081008091810081608093810080918000F2
:1005F0008160809380008091B10084608093B1001D
:100600008091B00081608093B00080917A00846016
:1006100080937A0080917A00826080937A00809142
:100620007A00816080937A0080917A00806880935C
:100630007A001092C1008091680081608093680008
:1006400080916B008E6180936B00AAE1B1E0C2E102
:10065000D1E022E231E08D919D919927FC01E05794
:10066000FF4F649184589F4FFC0184918823A1F02F
:1006700090E0880F991FFC01EE58FF4F459154916F
:10068000FC01E859FF4F859194918FB7F894FA01D6
:100690009081962B90838FBF899199919927FC0126
:1006A000E057FF4F449184589F4FFC018491882369
:1006B000C9F090E0880F991FFC01EE58FF4F65913B
:1006C0007491FC01E859FF4FE590F4909FB7F894BE
:1006D000FB018081409584238083F70180818423FE
:1006E00080839FBF2A173B0709F0B5CFE0915301E4
:1006F000F091540182E08083E0914F01F09150012C
:100700001082E0915101F09152018FEC80831092A0
:100710005B01E0915701F091580186E08083E09100
:100720005501F0915601808180618083E0915501EF
:10073000F0915601808188608083E0915501F091AD
:100740005601808180688083E0915501F0915601C7
:1007500080818F7D808346E050E069E271E083E430
:1007600091E00E947D0083B10E94AF01C0E0D0E023
:100770000E948A014B015C0188EEC82E83E0D82ECE
:10078000E12CF12C0E948A01681979098A099B09D8
:10079000683E734081059105A8F3F1E0CF1AD108B6
:1007A000E108F10828EE820E23E0921EA11CB11C84
:1007B000C114D104E104F10429F72097C9F20E9481
:1007C000E7008823A9F20E940000D2CFE3E4F1E021
:1007D0001382128288EE93E0A0E0B0E084839583D8
:1007E000A683B78384E091E09183808385EC90E0D9
:1007F0009587848784EC90E09787868780EC90E0EB
:10080000918B808B81EC90E0938B828B82EC90E0DB
:10081000958B848B86EC90E0978B868B118E128E55
:10082000138E148E0895EE0FFF1F0590F491E02DA6
:100830000994F894FFCF000000001D017D00AA007C
:100840006A01DB00B900CD000C000B000A000900B2
:100850000400050006000700310030000D0A0052B8
:0C086000455345542000494E5420000030
:107E0000112484B714BE81FFF0D085E080938100F7
:107E100082E08093C00088E18093C10086E0809377
:107E2000C20080E18093C4008EE0C9D0259A86E02C
:107E300020E33CEF91E0309385002093840096BBD3
:107E4000B09BFECF1D9AA8958150A9F7CC24DD24C4
:107E500088248394B5E0AB2EA1E19A2EF3E0BF2EE7
:107E6000A2D0813461F49FD0082FAFD0023811F036
:107E7000013811F484E001C083E08DD089C08234E0
:107E800011F484E103C0853419F485E0A6D080C0E4
:107E9000853579F488D0E82EFF2485D0082F10E0AE
:107EA000102F00270E291F29000F111F8ED06801E7
:107EB0006FC0863521F484E090D080E0DECF843638
:107EC00009F040C070D06FD0082F6DD080E0C81688
:107ED00080E7D80618F4F601B7BEE895C0E0D1E017
:107EE00062D089930C17E1F7F0E0CF16F0E7DF06D8
:107EF00018F0F601B7BEE89568D007B600FCFDCFD4
:107F0000A601A0E0B1E02C9130E011968C91119780
:107F100090E0982F8827822B932B1296FA010C0160
:107F200087BEE89511244E5F5F4FF1E0A038BF0790
:107F300051F7F601A7BEE89507B600FCFDCF97BE46
:107F4000E89526C08437B1F42ED02DD0F82E2BD052
:107F50003CD0F601EF2C8F010F5F1F4F84911BD097
:107F6000EA94F801C1F70894C11CD11CFA94CF0C13
:107F7000D11C0EC0853739F428D08EE10CD085E9AC
:107F80000AD08FE07ACF813511F488E018D01DD067
:107F900080E101D065CF982F8091C00085FFFCCF94
:107FA0009093C60008958091C00087FFFCCF809118
:107FB000C00084FD01C0A8958091C6000895E0E648
:107FC000F0E098E1908380830895EDDF803219F02E
:107FD00088E0F5DFFFCF84E1DECF1F93182FE3DFCA
:107FE0001150E9F7F2DF1F91089580E0E8DFEE27F6
:047FF000FF270994CA
:027FFE00040479
:00000001FF
